:100000000C9434000C943E000C943E000C943E0082
:100010000C943E000C943E000C943E000C943E0068
:100020000C943E000C943E000C943E000C943E0058
:100030000C943E000C943E000C943E000C943E0048
:100040000C943E000C943E000C943E000C943E0038
:100050000C943E000C943E000C943E000C943E0028
:100060000C943E000C943E0011241FBECFEFD8E04C
:10007000DEBFCDBF0E9440000C9465000C940000D0
:100080008AB18F608AB95B9A5A982FEF87EA91E616
:10009000215080409040E1F700C000005B9A5A9ADE
:1000A0002FEF89E698E1215080409040E1F700C0B1
:1000B0000000599A58982FEF87EA91E62150804026
:0E00C0009040E1F700C00000DECFF894FFCFC3
:00000001FF
